{
  "_format": "hh-sol-artifact-1",
  "contractName": "MyEpicNFT",
  "sourceName": "contracts/MyEpicNFT.sol",
  "abi": [
    {
      "inputs": [],
      "stateMutability": "nonpayable",
      "type": "constructor"
    },
    {
      "anonymous": false,
      "inputs": [
        {
          "indexed": true,
          "internalType": "address",
          "name": "owner",
          "type": "address"
        },
        {
          "indexed": true,
          "internalType": "address",
          "name": "approved",
          "type": "address"
        },
        {
          "indexed": true,
          "internalType": "uint256",
          "name": "tokenId",
          "type": "uint256"
        }
      ],
      "name": "Approval",
      "type": "event"
    },
    {
      "anonymous": false,
      "inputs": [
        {
          "indexed": true,
          "internalType": "address",
          "name": "owner",
          "type": "address"
        },
        {
          "indexed": true,
          "internalType": "address",
          "name": "operator",
          "type": "address"
        },
        {
          "indexed": false,
          "internalType": "bool",
          "name": "approved",
          "type": "bool"
        }
      ],
      "name": "ApprovalForAll",
      "type": "event"
    },
    {
      "anonymous": false,
      "inputs": [
        {
          "indexed": false,
          "internalType": "address",
          "name": "sender",
          "type": "address"
        },
        {
          "indexed": false,
          "internalType": "uint256",
          "name": "tokenId",
          "type": "uint256"
        }
      ],
      "name": "NewEpicNFTMinted",
      "type": "event"
    },
    {
      "anonymous": false,
      "inputs": [
        {
          "indexed": true,
          "internalType": "address",
          "name": "from",
          "type": "address"
        },
        {
          "indexed": true,
          "internalType": "address",
          "name": "to",
          "type": "address"
        },
        {
          "indexed": true,
          "internalType": "uint256",
          "name": "tokenId",
          "type": "uint256"
        }
      ],
      "name": "Transfer",
      "type": "event"
    },
    {
      "inputs": [],
      "name": "MAX_SUPPLY",
      "outputs": [
        {
          "internalType": "uint256",
          "name": "",
          "type": "uint256"
        }
      ],
      "stateMutability": "view",
      "type": "function"
    },
    {
      "inputs": [
        {
          "internalType": "address",
          "name": "to",
          "type": "address"
        },
        {
          "internalType": "uint256",
          "name": "tokenId",
          "type": "uint256"
        }
      ],
      "name": "approve",
      "outputs": [],
      "stateMutability": "nonpayable",
      "type": "function"
    },
    {
      "inputs": [
        {
          "internalType": "address",
          "name": "owner",
          "type": "address"
        }
      ],
      "name": "balanceOf",
      "outputs": [
        {
          "internalType": "uint256",
          "name": "",
          "type": "uint256"
        }
      ],
      "stateMutability": "view",
      "type": "function"
    },
    {
      "inputs": [
        {
          "internalType": "uint256",
          "name": "tokenId",
          "type": "uint256"
        }
      ],
      "name": "getApproved",
      "outputs": [
        {
          "internalType": "address",
          "name": "",
          "type": "address"
        }
      ],
      "stateMutability": "view",
      "type": "function"
    },
    {
      "inputs": [],
      "name": "getTotalMintedSoFar",
      "outputs": [
        {
          "internalType": "uint256",
          "name": "",
          "type": "uint256"
        }
      ],
      "stateMutability": "view",
      "type": "function"
    },
    {
      "inputs": [
        {
          "internalType": "address",
          "name": "owner",
          "type": "address"
        },
        {
          "internalType": "address",
          "name": "operator",
          "type": "address"
        }
      ],
      "name": "isApprovedForAll",
      "outputs": [
        {
          "internalType": "bool",
          "name": "",
          "type": "bool"
        }
      ],
      "stateMutability": "view",
      "type": "function"
    },
    {
      "inputs": [],
      "name": "makeAnEpicNFT",
      "outputs": [],
      "stateMutability": "nonpayable",
      "type": "function"
    },
    {
      "inputs": [],
      "name": "name",
      "outputs": [
        {
          "internalType": "string",
          "name": "",
          "type": "string"
        }
      ],
      "stateMutability": "view",
      "type": "function"
    },
    {
      "inputs": [
        {
          "internalType": "uint256",
          "name": "tokenId",
          "type": "uint256"
        }
      ],
      "name": "ownerOf",
      "outputs": [
        {
          "internalType": "address",
          "name": "",
          "type": "address"
        }
      ],
      "stateMutability": "view",
      "type": "function"
    },
    {
      "inputs": [
        {
          "internalType": "uint256",
          "name": "tokenId",
          "type": "uint256"
        }
      ],
      "name": "pickRandomFirstWord",
      "outputs": [
        {
          "internalType": "string",
          "name": "",
          "type": "string"
        }
      ],
      "stateMutability": "view",
      "type": "function"
    },
    {
      "inputs": [
        {
          "internalType": "uint256",
          "name": "tokenId",
          "type": "uint256"
        }
      ],
      "name": "pickRandomSecondWord",
      "outputs": [
        {
          "internalType": "string",
          "name": "",
          "type": "string"
        }
      ],
      "stateMutability": "view",
      "type": "function"
    },
    {
      "inputs": [
        {
          "internalType": "address",
          "name": "from",
          "type": "address"
        },
        {
          "internalType": "address",
          "name": "to",
          "type": "address"
        },
        {
          "internalType": "uint256",
          "name": "tokenId",
          "type": "uint256"
        }
      ],
      "name": "safeTransferFrom",
      "outputs": [],
      "stateMutability": "nonpayable",
      "type": "function"
    },
    {
      "inputs": [
        {
          "internalType": "address",
          "name": "from",
          "type": "address"
        },
        {
          "internalType": "address",
          "name": "to",
          "type": "address"
        },
        {
          "internalType": "uint256",
          "name": "tokenId",
          "type": "uint256"
        },
        {
          "internalType": "bytes",
          "name": "_data",
          "type": "bytes"
        }
      ],
      "name": "safeTransferFrom",
      "outputs": [],
      "stateMutability": "nonpayable",
      "type": "function"
    },
    {
      "inputs": [
        {
          "internalType": "address",
          "name": "operator",
          "type": "address"
        },
        {
          "internalType": "bool",
          "name": "approved",
          "type": "bool"
        }
      ],
      "name": "setApprovalForAll",
      "outputs": [],
      "stateMutability": "nonpayable",
      "type": "function"
    },
    {
      "inputs": [
        {
          "internalType": "bytes4",
          "name": "interfaceId",
          "type": "bytes4"
        }
      ],
      "name": "supportsInterface",
      "outputs": [
        {
          "internalType": "bool",
          "name": "",
          "type": "bool"
        }
      ],
      "stateMutability": "view",
      "type": "function"
    },
    {
      "inputs": [],
      "name": "symbol",
      "outputs": [
        {
          "internalType": "string",
          "name": "",
          "type": "string"
        }
      ],
      "stateMutability": "view",
      "type": "function"
    },
    {
      "inputs": [
        {
          "internalType": "uint256",
          "name": "tokenId",
          "type": "uint256"
        }
      ],
      "name": "tokenURI",
      "outputs": [
        {
          "internalType": "string",
          "name": "",
          "type": "string"
        }
      ],
      "stateMutability": "view",
      "type": "function"
    },
    {
      "inputs": [
        {
          "internalType": "address",
          "name": "from",
          "type": "address"
        },
        {
          "internalType": "address",
          "name": "to",
          "type": "address"
        },
        {
          "internalType": "uint256",
          "name": "tokenId",
          "type": "uint256"
        }
      ],
      "name": "transferFrom",
      "outputs": [],
      "stateMutability": "nonpayable",
      "type": "function"
    }
  ],
  "bytecode": "0x608060405260405180610160016040528061012f815260200162003ec261012f913960089080519060200190620000389291906200053b565b506040518060e001604052806040518060400160405280600481526020017f31c2b0200000000000000000000000000000000000000000000000000000000081525081526020016040518060400160405280600581526020017f3230c2b02000000000000000000000000000000000000000000000000000000081525081526020016040518060400160405280600581526020017f3332c2b02000000000000000000000000000000000000000000000000000000081525081526020016040518060400160405280600581526020017f3337c2b02000000000000000000000000000000000000000000000000000000081525081526020016040518060400160405280600581526020017f3832c2b02000000000000000000000000000000000000000000000000000000081525081526020016040518060400160405280600581526020017f3431c2b02000000000000000000000000000000000000000000000000000000081525081526020016040518060400160405280600581526020017f3134c2b0200000000000000000000000000000000000000000000000000000008152508152506009906007620001f1929190620005cc565b506040518060c001604052806040518060400160405280600581526020017f313033c2b000000000000000000000000000000000000000000000000000000081525081526020016040518060400160405280600481526020017f3833c2b00000000000000000000000000000000000000000000000000000000081525081526020016040518060400160405280600581526020017f313139c2b000000000000000000000000000000000000000000000000000000081525081526020016040518060400160405280600481526020017f3739c2b00000000000000000000000000000000000000000000000000000000081525081526020016040518060400160405280600581526020017f313335c2b000000000000000000000000000000000000000000000000000000081525081526020016040518060400160405280600481526020017f3532c2b000000000000000000000000000000000000000000000000000000000815250815250600a9060066200036f92919062000633565b503480156200037d57600080fd5b506040518060400160405280600d81526020017f436f6f7264696e6174654e4654000000000000000000000000000000000000008152506040518060400160405280600581526020017f434f4f52440000000000000000000000000000000000000000000000000000008152508160009080519060200190620004029291906200053b565b5080600190805190602001906200041b9291906200053b565b505050620004696040518060400160405280601e81526020017f54686973206973206d79204e465420636f6e74726163742e20576f61682100008152506200046f60201b62000fe71760201c565b62000854565b6200050f8160405160240162000486919062000768565b6040516020818303038152906040527f41304fac000000000000000000000000000000000000000000000000000000007bffffffffffffffffffffffffffffffffffffffffffffffffffffffff19166020820180517bffffffffffffffffffffffffffffffffffffffffffffffffffffffff83818316178352505050506200051260201b60201c565b50565b60008151905060006a636f6e736f6c652e6c6f679050602083016000808483855afa5050505050565b8280546200054990620007de565b90600052602060002090601f0160209004810192826200056d5760008555620005b9565b82601f106200058857805160ff1916838001178555620005b9565b82800160010185558215620005b9579182015b82811115620005b85782518255916020019190600101906200059b565b5b509050620005c891906200069a565b5090565b82805482825590600052602060002090810192821562000620579160200282015b828111156200061f5782518290805190602001906200060e9291906200053b565b5091602001919060010190620005ed565b5b5090506200062f9190620006b9565b5090565b82805482825590600052602060002090810192821562000687579160200282015b8281111562000686578251829080519060200190620006759291906200053b565b509160200191906001019062000654565b5b509050620006969190620006b9565b5090565b5b80821115620006b55760008160009055506001016200069b565b5090565b5b80821115620006dd5760008181620006d39190620006e1565b50600101620006ba565b5090565b508054620006ef90620007de565b6000825580601f1062000703575062000724565b601f0160209004906000526020600020908101906200072391906200069a565b5b50565b600062000734826200078c565b62000740818562000797565b935062000752818560208601620007a8565b6200075d8162000843565b840191505092915050565b6000602082019050818103600083015262000784818462000727565b905092915050565b600081519050919050565b600082825260208201905092915050565b60005b83811015620007c8578082015181840152602081019050620007ab565b83811115620007d8576000848401525b50505050565b60006002820490506001821680620007f757607f821691505b602082108114156200080e576200080d62000814565b5b50919050565b7f4e487b7100000000000000000000000000000000000000000000000000000000600052602260045260246000fd5b6000601f19601f8301169050919050565b61365e80620008646000396000f3fe608060405234801561001057600080fd5b50600436106101165760003560e01c80636352211e116100a2578063b187301f11610071578063b187301f146102f3578063b88d4fde14610323578063c87b56dd1461033f578063de9d132f1461036f578063e985e9c51461037957610116565b80636352211e1461025957806370a082311461028957806395d89b41146102b9578063a22cb465146102d757610116565b80631df38193116100e95780631df38193146101b557806323b872dd146101d35780632de38d68146101ef57806332cb6b0c1461021f57806342842e0e1461023d57610116565b806301ffc9a71461011b57806306fdde031461014b578063081812fc14610169578063095ea7b314610199575b600080fd5b61013560048036038101906101309190612348565b6103a9565b6040516101429190612f17565b60405180910390f35b61015361048b565b6040516101609190612f32565b60405180910390f35b610183600480360381019061017e919061239a565b61051d565b6040516101909190612e87565b60405180910390f35b6101b360048036038101906101ae919061230c565b6105a2565b005b6101bd6106ba565b6040516101ca9190613174565b60405180910390f35b6101ed60048036038101906101e89190612206565b6106cb565b005b6102096004803603810190610204919061239a565b61072b565b6040516102169190612f32565b60405180910390f35b610227610849565b6040516102349190613174565b60405180910390f35b61025760048036038101906102529190612206565b61084e565b005b610273600480360381019061026e919061239a565b61086e565b6040516102809190612e87565b60405180910390f35b6102a3600480360381019061029e91906121a1565b610920565b6040516102b09190613174565b60405180910390f35b6102c16109d8565b6040516102ce9190612f32565b60405180910390f35b6102f160048036038101906102ec91906122d0565b610a6a565b005b61030d6004803603810190610308919061239a565b610a80565b60405161031a9190612f32565b60405180910390f35b61033d60048036038101906103389190612255565b610b9e565b005b6103596004803603810190610354919061239a565b610c00565b6040516103669190612f32565b60405180910390f35b610377610d52565b005b610393600480360381019061038e91906121ca565b610f53565b6040516103a09190612f17565b60405180910390f35b60007f80ac58cd000000000000000000000000000000000000000000000000000000007bffffffffffffffffffffffffffffffffffffffffffffffffffffffff1916827bffffffffffffffffffffffffffffffffffffffffffffffffffffffff1916148061047457507f5b5e139f000000000000000000000000000000000000000000000000000000007bffffffffffffffffffffffffffffffffffffffffffffffffffffffff1916827bffffffffffffffffffffffffffffffffffffffffffffffffffffffff1916145b80610484575061048382611080565b5b9050919050565b60606000805461049a90613413565b80601f01602080910402602001604051908101604052809291908181526020018280546104c690613413565b80156105135780601f106104e857610100808354040283529160200191610513565b820191906000526020600020905b8154815290600101906020018083116104f657829003601f168201915b5050505050905090565b6000610528826110ea565b610567576040517f08c379a000000000000000000000000000000000000000000000000000000000815260040161055e906130d4565b60405180910390fd5b6004600083815260200190815260200160002060009054906101000a900473ffffffffffffffffffffffffffffffffffffffff169050919050565b60006105ad8261086e565b90508073ffffffffffffffffffffffffffffffffffffffff168373ffffffffffffffffffffffffffffffffffffffff16141561061e576040517f08c379a000000000000000000000000000000000000000000000000000000000815260040161061590613134565b60405180910390fd5b8073ffffffffffffffffffffffffffffffffffffffff1661063d611156565b73ffffffffffffffffffffffffffffffffffffffff16148061066c575061066b81610666611156565b610f53565b5b6106ab576040517f08c379a00000000000000000000000000000000000000000000000000000000081526004016106a290613014565b60405180910390fd5b6106b5838361115e565b505050565b60006106c66007611217565b905090565b6106dc6106d6611156565b82611225565b61071b576040517f08c379a000000000000000000000000000000000000000000000000000000000815260040161071290613154565b60405180910390fd5b610726838383611303565b505050565b6060600061075f61073b8461155f565b60405160200161074b9190612e43565b60405160208183030381529060405261170c565b905060098054905081610772919061348e565b9050600981815481106107ae577f4e487b7100000000000000000000000000000000000000000000000000000000600052603260045260246000fd5b9060005260206000200180546107c390613413565b80601f01602080910402602001604051908101604052809291908181526020018280546107ef90613413565b801561083c5780601f106108115761010080835404028352916020019161083c565b820191906000526020600020905b81548152906001019060200180831161081f57829003601f168201915b5050505050915050919050565b603281565b61086983838360405180602001604052806000815250610b9e565b505050565b6000806002600084815260200190815260200160002060009054906101000a900473ffffffffffffffffffffffffffffffffffffffff169050600073ffffffffffffffffffffffffffffffffffffffff168173ffffffffffffffffffffffffffffffffffffffff161415610917576040517f08c379a000000000000000000000000000000000000000000000000000000000815260040161090e90613054565b60405180910390fd5b80915050919050565b60008073ffffffffffffffffffffffffffffffffffffffff168273ffffffffffffffffffffffffffffffffffffffff161415610991576040517f08c379a000000000000000000000000000000000000000000000000000000000815260040161098890613034565b60405180910390fd5b600360008373ffffffffffffffffffffffffffffffffffffffff1673ffffffffffffffffffffffffffffffffffffffff168152602001908152602001600020549050919050565b6060600180546109e790613413565b80601f0160208091040260200160405190810160405280929190818152602001828054610a1390613413565b8015610a605780601f10610a3557610100808354040283529160200191610a60565b820191906000526020600020905b815481529060010190602001808311610a4357829003601f168201915b5050505050905090565b610a7c610a75611156565b838361173f565b5050565b60606000610ab4610a908461155f565b604051602001610aa09190612ddc565b60405160208183030381529060405261170c565b9050600a8054905081610ac7919061348e565b9050600a8181548110610b03577f4e487b7100000000000000000000000000000000000000000000000000000000600052603260045260246000fd5b906000526020600020018054610b1890613413565b80601f0160208091040260200160405190810160405280929190818152602001828054610b4490613413565b8015610b915780601f10610b6657610100808354040283529160200191610b91565b820191906000526020600020905b815481529060010190602001808311610b7457829003601f168201915b5050505050915050919050565b610baf610ba9611156565b83611225565b610bee576040517f08c379a0000000000000000000000000000000000000000000000000000000008152600401610be590613154565b60405180910390fd5b610bfa848484846118ac565b50505050565b6060610c0b826110ea565b610c4a576040517f08c379a0000000000000000000000000000000000000000000000000000000008152600401610c41906130b4565b60405180910390fd5b6000600660008481526020019081526020016000208054610c6a90613413565b80601f0160208091040260200160405190810160405280929190818152602001828054610c9690613413565b8015610ce35780601f10610cb857610100808354040283529160200191610ce3565b820191906000526020600020905b815481529060010190602001808311610cc657829003601f168201915b505050505090506000610cf4611908565b9050600081511415610d0a578192505050610d4d565b600082511115610d3f578082604051602001610d27929190612d89565b60405160208183030381529060405292505050610d4d565b610d488461191f565b925050505b919050565b6032610d5e6007611217565b1115610d9f576040517f08c379a0000000000000000000000000000000000000000000000000000000008152600401610d9690612ff4565b60405180910390fd5b6000610dab6007611217565b90506000610db88261072b565b90506000610dc583610a80565b905060008282604051602001610ddc929190612d89565b60405160208183030381529060405290506000600882604051602001610e03929190612dad565b60405160208183030381529060405290506000610e4883610e23846119c6565b604051602001610e34929190612dfe565b6040516020818303038152906040526119c6565b9050600081604051602001610e5d9190612e65565b6040516020818303038152906040529050610eac6040518060400160405280601581526020017f0a2d2d2d2d2d2d2d2d2d2d2d2d2d2d2d2d2d2d2d2d0000000000000000000000815250610fe7565b610eb581610fe7565b610ef36040518060400160405280601581526020017f2d2d2d2d2d2d2d2d2d2d2d2d2d2d2d2d2d2d2d2d0a0000000000000000000000815250610fe7565b610efd3388611b84565b610f078782611ba2565b610f116007611c16565b7febb98688741ffa4c7589bf325de30cf7becb63de567842e1ccdb6cb949fdc82c3388604051610f42929190612eee565b60405180910390a150505050505050565b6000600560008473ffffffffffffffffffffffffffffffffffffffff1673ffffffffffffffffffffffffffffffffffffffff16815260200190815260200160002060008373ffffffffffffffffffffffffffffffffffffffff1673ffffffffffffffffffffffffffffffffffffffff16815260200190815260200160002060009054906101000a900460ff16905092915050565b61107d81604051602401610ffb9190612f32565b6040516020818303038152906040527f41304fac000000000000000000000000000000000000000000000000000000007bffffffffffffffffffffffffffffffffffffffffffffffffffffffff19166020820180517bffffffffffffffffffffffffffffffffffffffffffffffffffffffff8381831617835250505050611c2c565b50565b60007f01ffc9a7000000000000000000000000000000000000000000000000000000007bffffffffffffffffffffffffffffffffffffffffffffffffffffffff1916827bffffffffffffffffffffffffffffffffffffffffffffffffffffffff1916149050919050565b60008073ffffffffffffffffffffffffffffffffffffffff166002600084815260200190815260200160002060009054906101000a900473ffffffffffffffffffffffffffffffffffffffff1673ffffffffffffffffffffffffffffffffffffffff1614159050919050565b600033905090565b816004600083815260200190815260200160002060006101000a81548173ffffffffffffffffffffffffffffffffffffffff021916908373ffffffffffffffffffffffffffffffffffffffff160217905550808273ffffffffffffffffffffffffffffffffffffffff166111d18361086e565b73ffffffffffffffffffffffffffffffffffffffff167f8c5be1e5ebec7d5bd14f71427d1e84f3dd0314c0f7b2291e5b200ac8c7c3b92560405160405180910390a45050565b600081600001549050919050565b6000611230826110ea565b61126f576040517f08c379a000000000000000000000000000000000000000000000000000000000815260040161126690612fd4565b60405180910390fd5b600061127a8361086e565b90508073ffffffffffffffffffffffffffffffffffffffff168473ffffffffffffffffffffffffffffffffffffffff1614806112e957508373ffffffffffffffffffffffffffffffffffffffff166112d18461051d565b73ffffffffffffffffffffffffffffffffffffffff16145b806112fa57506112f98185610f53565b5b91505092915050565b8273ffffffffffffffffffffffffffffffffffffffff166113238261086e565b73ffffffffffffffffffffffffffffffffffffffff1614611379576040517f08c379a0000000000000000000000000000000000000000000000000000000008152600401611370906130f4565b60405180910390fd5b600073ffffffffffffffffffffffffffffffffffffffff168273ffffffffffffffffffffffffffffffffffffffff1614156113e9576040517f08c379a00000000000000000000000000000000000000000000000000000000081526004016113e090612f94565b60405180910390fd5b6113f4838383611c55565b6113ff60008261115e565b6001600360008573ffffffffffffffffffffffffffffffffffffffff1673ffffffffffffffffffffffffffffffffffffffff168152602001908152602001600020600082825461144f9190613329565b925050819055506001600360008473ffffffffffffffffffffffffffffffffffffffff1673ffffffffffffffffffffffffffffffffffffffff16815260200190815260200160002060008282546114a69190613248565b92505081905550816002600083815260200190815260200160002060006101000a81548173ffffffffffffffffffffffffffffffffffffffff021916908373ffffffffffffffffffffffffffffffffffffffff160217905550808273ffffffffffffffffffffffffffffffffffffffff168473ffffffffffffffffffffffffffffffffffffffff167fddf252ad1be2c89b69c2b068fc378daa952ba7f163c4a11628f55a4df523b3ef60405160405180910390a4505050565b606060008214156115a7576040518060400160405280600181526020017f30000000000000000000000000000000000000000000000000000000000000008152509050611707565b600082905060005b600082146115d95780806115c290613445565b915050600a826115d2919061329e565b91506115af565b60008167ffffffffffffffff81111561161b577f4e487b7100000000000000000000000000000000000000000000000000000000600052604160045260246000fd5b6040519080825280601f01601f19166020018201604052801561164d5781602001600182028036833780820191505090505b5090505b60008514611700576001826116669190613329565b9150600a85611675919061348e565b60306116819190613248565b60f81b8183815181106116bd577f4e487b7100000000000000000000000000000000000000000000000000000000600052603260045260246000fd5b60200101907effffffffffffffffffffffffffffffffffffffffffffffffffffffffffffff1916908160001a905350600a856116f9919061329e565b9450611651565b8093505050505b919050565b60008160405160200161171f9190612d72565b6040516020818303038152906040528051906020012060001c9050919050565b8173ffffffffffffffffffffffffffffffffffffffff168373ffffffffffffffffffffffffffffffffffffffff1614156117ae576040517f08c379a00000000000000000000000000000000000000000000000000000000081526004016117a590612fb4565b60405180910390fd5b80600560008573ffffffffffffffffffffffffffffffffffffffff1673ffffffffffffffffffffffffffffffffffffffff16815260200190815260200160002060008473ffffffffffffffffffffffffffffffffffffffff1673ffffffffffffffffffffffffffffffffffffffff16815260200190815260200160002060006101000a81548160ff0219169083151502179055508173ffffffffffffffffffffffffffffffffffffffff168373ffffffffffffffffffffffffffffffffffffffff167f17307eab39ab6107e8899845ad3d59bd9653f200f220920489ca2b5937696c318360405161189f9190612f17565b60405180910390a3505050565b6118b7848484611303565b6118c384848484611c5a565b611902576040517f08c379a00000000000000000000000000000000000000000000000000000000081526004016118f990612f54565b60405180910390fd5b50505050565b606060405180602001604052806000815250905090565b606061192a826110ea565b611969576040517f08c379a000000000000000000000000000000000000000000000000000000000815260040161196090613114565b60405180910390fd5b6000611973611908565b9050600081511161199357604051806020016040528060008152506119be565b8061199d8461155f565b6040516020016119ae929190612d89565b6040516020818303038152906040525b915050919050565b606060008251905060008114156119ef5760405180602001604052806000815250915050611b7f565b60006003600283611a009190613248565b611a0a919061329e565b6004611a1691906132cf565b90506000602082611a279190613248565b67ffffffffffffffff811115611a66577f4e487b7100000000000000000000000000000000000000000000000000000000600052604160045260246000fd5b6040519080825280601f01601f191660200182016040528015611a985781602001600182028036833780820191505090505b50905060006040518060600160405280604081526020016135e9604091399050600181016020830160005b86811015611b3c5760038101905062ffffff818a015116603f8160121c168401518060081b905060ff603f83600c1c1686015116810190508060081b905060ff603f8360061c1686015116810190508060081b905060ff603f831686015116810190508060e01b90508084526004840193505050611ac3565b506003860660018114611b565760028114611b6657611b71565b613d3d60f01b6002830352611b71565b603d60f81b60018303525b508484525050819450505050505b919050565b611b9e828260405180602001604052806000815250611df1565b5050565b611bab826110ea565b611bea576040517f08c379a0000000000000000000000000000000000000000000000000000000008152600401611be190613074565b60405180910390fd5b80600660008481526020019081526020016000209080519060200190611c1192919061202d565b505050565b6001816000016000828254019250508190555050565b60008151905060006a636f6e736f6c652e6c6f679050602083016000808483855afa5050505050565b505050565b6000611c7b8473ffffffffffffffffffffffffffffffffffffffff16611e4c565b15611de4578373ffffffffffffffffffffffffffffffffffffffff1663150b7a02611ca4611156565b8786866040518563ffffffff1660e01b8152600401611cc69493929190612ea2565b602060405180830381600087803b158015611ce057600080fd5b505af1925050508015611d1157506040513d601f19601f82011682018060405250810190611d0e9190612371565b60015b611d94573d8060008114611d41576040519150601f19603f3d011682016040523d82523d6000602084013e611d46565b606091505b50600081511415611d8c576040517f08c379a0000000000000000000000000000000000000000000000000000000008152600401611d8390612f54565b60405180910390fd5b805181602001fd5b63150b7a0260e01b7bffffffffffffffffffffffffffffffffffffffffffffffffffffffff1916817bffffffffffffffffffffffffffffffffffffffffffffffffffffffff191614915050611de9565b600190505b949350505050565b611dfb8383611e5f565b611e086000848484611c5a565b611e47576040517f08c379a0000000000000000000000000000000000000000000000000000000008152600401611e3e90612f54565b60405180910390fd5b505050565b600080823b905060008111915050919050565b600073ffffffffffffffffffffffffffffffffffffffff168273ffffffffffffffffffffffffffffffffffffffff161415611ecf576040517f08c379a0000000000000000000000000000000000000000000000000000000008152600401611ec690613094565b60405180910390fd5b611ed8816110ea565b15611f18576040517f08c379a0000000000000000000000000000000000000000000000000000000008152600401611f0f90612f74565b60405180910390fd5b611f2460008383611c55565b6001600360008473ffffffffffffffffffffffffffffffffffffffff1673ffffffffffffffffffffffffffffffffffffffff1681526020019081526020016000206000828254611f749190613248565b92505081905550816002600083815260200190815260200160002060006101000a81548173ffffffffffffffffffffffffffffffffffffffff021916908373ffffffffffffffffffffffffffffffffffffffff160217905550808273ffffffffffffffffffffffffffffffffffffffff16600073ffffffffffffffffffffffffffffffffffffffff167fddf252ad1be2c89b69c2b068fc378daa952ba7f163c4a11628f55a4df523b3ef60405160405180910390a45050565b82805461203990613413565b90600052602060002090601f01602090048101928261205b57600085556120a2565b82601f1061207457805160ff19168380011785556120a2565b828001600101855582156120a2579182015b828111156120a1578251825591602001919060010190612086565b5b5090506120af91906120b3565b5090565b5b808211156120cc5760008160009055506001016120b4565b5090565b60006120e36120de846131c0565b61318f565b9050828152602081018484840111156120fb57600080fd5b6121068482856133d1565b509392505050565b60008135905061211d8161358c565b92915050565b600081359050612132816135a3565b92915050565b600081359050612147816135ba565b92915050565b60008151905061215c816135ba565b92915050565b600082601f83011261217357600080fd5b81356121838482602086016120d0565b91505092915050565b60008135905061219b816135d1565b92915050565b6000602082840312156121b357600080fd5b60006121c18482850161210e565b91505092915050565b600080604083850312156121dd57600080fd5b60006121eb8582860161210e565b92505060206121fc8582860161210e565b9150509250929050565b60008060006060848603121561221b57600080fd5b60006122298682870161210e565b935050602061223a8682870161210e565b925050604061224b8682870161218c565b9150509250925092565b6000806000806080858703121561226b57600080fd5b60006122798782880161210e565b945050602061228a8782880161210e565b935050604061229b8782880161218c565b925050606085013567ffffffffffffffff8111156122b857600080fd5b6122c487828801612162565b91505092959194509250565b600080604083850312156122e357600080fd5b60006122f18582860161210e565b925050602061230285828601612123565b9150509250929050565b6000806040838503121561231f57600080fd5b600061232d8582860161210e565b925050602061233e8582860161218c565b9150509250929050565b60006020828403121561235a57600080fd5b600061236884828501612138565b91505092915050565b60006020828403121561238357600080fd5b60006123918482850161214d565b91505092915050565b6000602082840312156123ac57600080fd5b60006123ba8482850161218c565b91505092915050565b6123cc8161335d565b82525050565b6123db8161336f565b82525050565b60006123ec82613205565b6123f6818561321b565b93506124068185602086016133e0565b61240f8161357b565b840191505092915050565b600061242582613210565b61242f818561322c565b935061243f8185602086016133e0565b6124488161357b565b840191505092915050565b600061245e82613210565b612468818561323d565b93506124788185602086016133e0565b80840191505092915050565b6000815461249181613413565b61249b818661323d565b945060018216600081146124b657600181146124c7576124fa565b60ff198316865281860193506124fa565b6124d0856131f0565b60005b838110156124f2578154818901526001820191506020810190506124d3565b838801955050505b50505092915050565b600061251060328361322c565b91507f4552433732313a207472616e7366657220746f206e6f6e20455243373231526560008301527f63656976657220696d706c656d656e74657200000000000000000000000000006020830152604082019050919050565b6000612576601c8361322c565b91507f4552433732313a20746f6b656e20616c7265616479206d696e746564000000006000830152602082019050919050565b60006125b660248361322c565b91507f4552433732313a207472616e7366657220746f20746865207a65726f2061646460008301527f72657373000000000000000000000000000000000000000000000000000000006020830152604082019050919050565b600061261c60198361322c565b91507f4552433732313a20617070726f766520746f2063616c6c6572000000000000006000830152602082019050919050565b600061265c60638361323d565b91507f222c20226465736372697074696f6e223a20224120686967686c79206163636c60008301527f61696d656420636f6c6c656374696f6e206f6620737175617265732e222c202260208301527f696d616765223a2022646174613a696d6167652f7376672b786d6c3b6261736560408301527f36342c00000000000000000000000000000000000000000000000000000000006060830152606382019050919050565b600061270e600b8361323d565b91507f5345434f4e445f574f52440000000000000000000000000000000000000000006000830152600b82019050919050565b600061274e602c8361322c565b91507f4552433732313a206f70657261746f7220717565727920666f72206e6f6e657860008301527f697374656e7420746f6b656e00000000000000000000000000000000000000006020830152604082019050919050565b60006127b4600d8361323d565b91507f3c2f746578743e3c2f7376673e000000000000000000000000000000000000006000830152600d82019050919050565b60006127f460138361322c565b91507f43616e6e6f74206d696e7420616e796d6f7265000000000000000000000000006000830152602082019050919050565b600061283460388361322c565b91507f4552433732313a20617070726f76652063616c6c6572206973206e6f74206f7760008301527f6e6572206e6f7220617070726f76656420666f7220616c6c00000000000000006020830152604082019050919050565b600061289a602a8361322c565b91507f4552433732313a2062616c616e636520717565727920666f7220746865207a6560008301527f726f2061646472657373000000000000000000000000000000000000000000006020830152604082019050919050565b600061290060298361322c565b91507f4552433732313a206f776e657220717565727920666f72206e6f6e657869737460008301527f656e7420746f6b656e00000000000000000000000000000000000000000000006020830152604082019050919050565b6000612966602e8361322c565b91507f45524337323155524953746f726167653a2055524920736574206f66206e6f6e60008301527f6578697374656e7420746f6b656e0000000000000000000000000000000000006020830152604082019050919050565b60006129cc60028361323d565b91507f227d0000000000000000000000000000000000000000000000000000000000006000830152600282019050919050565b6000612a0c60208361322c565b91507f4552433732313a206d696e7420746f20746865207a65726f20616464726573736000830152602082019050919050565b6000612a4c60318361322c565b91507f45524337323155524953746f726167653a2055524920717565727920666f722060008301527f6e6f6e6578697374656e7420746f6b656e0000000000000000000000000000006020830152604082019050919050565b6000612ab2602c8361322c565b91507f4552433732313a20617070726f76656420717565727920666f72206e6f6e657860008301527f697374656e7420746f6b656e00000000000000000000000000000000000000006020830152604082019050919050565b6000612b1860298361322c565b91507f4552433732313a207472616e73666572206f6620746f6b656e2074686174206960008301527f73206e6f74206f776e00000000000000000000000000000000000000000000006020830152604082019050919050565b6000612b7e602f8361322c565b91507f4552433732314d657461646174613a2055524920717565727920666f72206e6f60008301527f6e6578697374656e7420746f6b656e00000000000000000000000000000000006020830152604082019050919050565b6000612be4600a8361323d565b91507f7b226e616d65223a2022000000000000000000000000000000000000000000006000830152600a82019050919050565b6000612c2460218361322c565b91507f4552433732313a20617070726f76616c20746f2063757272656e74206f776e6560008301527f72000000000000000000000000000000000000000000000000000000000000006020830152604082019050919050565b6000612c8a600a8361323d565b91507f46495253545f574f5244000000000000000000000000000000000000000000006000830152600a82019050919050565b6000612cca601d8361323d565b91507f646174613a6170706c69636174696f6e2f6a736f6e3b6261736536342c0000006000830152601d82019050919050565b6000612d0a60318361322c565b91507f4552433732313a207472616e736665722063616c6c6572206973206e6f74206f60008301527f776e6572206e6f7220617070726f7665640000000000000000000000000000006020830152604082019050919050565b612d6c816133c7565b82525050565b6000612d7e8284612453565b915081905092915050565b6000612d958285612453565b9150612da18284612453565b91508190509392505050565b6000612db98285612484565b9150612dc58284612453565b9150612dd0826127a7565b91508190509392505050565b6000612de782612701565b9150612df38284612453565b915081905092915050565b6000612e0982612bd7565b9150612e158285612453565b9150612e208261264f565b9150612e2c8284612453565b9150612e37826129bf565b91508190509392505050565b6000612e4e82612c7d565b9150612e5a8284612453565b915081905092915050565b6000612e7082612cbd565b9150612e7c8284612453565b915081905092915050565b6000602082019050612e9c60008301846123c3565b92915050565b6000608082019050612eb760008301876123c3565b612ec460208301866123c3565b612ed16040830185612d63565b8181036060830152612ee381846123e1565b905095945050505050565b6000604082019050612f0360008301856123c3565b612f106020830184612d63565b9392505050565b6000602082019050612f2c60008301846123d2565b92915050565b60006020820190508181036000830152612f4c818461241a565b905092915050565b60006020820190508181036000830152612f6d81612503565b9050919050565b60006020820190508181036000830152612f8d81612569565b9050919050565b60006020820190508181036000830152612fad816125a9565b9050919050565b60006020820190508181036000830152612fcd8161260f565b9050919050565b60006020820190508181036000830152612fed81612741565b9050919050565b6000602082019050818103600083015261300d816127e7565b9050919050565b6000602082019050818103600083015261302d81612827565b9050919050565b6000602082019050818103600083015261304d8161288d565b9050919050565b6000602082019050818103600083015261306d816128f3565b9050919050565b6000602082019050818103600083015261308d81612959565b9050919050565b600060208201905081810360008301526130ad816129ff565b9050919050565b600060208201905081810360008301526130cd81612a3f565b9050919050565b600060208201905081810360008301526130ed81612aa5565b9050919050565b6000602082019050818103600083015261310d81612b0b565b9050919050565b6000602082019050818103600083015261312d81612b71565b9050919050565b6000602082019050818103600083015261314d81612c17565b9050919050565b6000602082019050818103600083015261316d81612cfd565b9050919050565b60006020820190506131896000830184612d63565b92915050565b6000604051905081810181811067ffffffffffffffff821117156131b6576131b561354c565b5b8060405250919050565b600067ffffffffffffffff8211156131db576131da61354c565b5b601f19601f8301169050602081019050919050565b60008190508160005260206000209050919050565b600081519050919050565b600081519050919050565b600082825260208201905092915050565b600082825260208201905092915050565b600081905092915050565b6000613253826133c7565b915061325e836133c7565b9250827fffffffffffffffffffffffffffffffffffffffffffffffffffffffffffffffff03821115613293576132926134bf565b5b828201905092915050565b60006132a9826133c7565b91506132b4836133c7565b9250826132c4576132c36134ee565b5b828204905092915050565b60006132da826133c7565b91506132e5836133c7565b9250817fffffffffffffffffffffffffffffffffffffffffffffffffffffffffffffffff048311821515161561331e5761331d6134bf565b5b828202905092915050565b6000613334826133c7565b915061333f836133c7565b925082821015613352576133516134bf565b5b828203905092915050565b6000613368826133a7565b9050919050565b60008115159050919050565b60007fffffffff0000000000000000000000000000000000000000000000000000000082169050919050565b600073ffffffffffffffffffffffffffffffffffffffff82169050919050565b6000819050919050565b82818337600083830152505050565b60005b838110156133fe5780820151818401526020810190506133e3565b8381111561340d576000848401525b50505050565b6000600282049050600182168061342b57607f821691505b6020821081141561343f5761343e61351d565b5b50919050565b6000613450826133c7565b91507fffffffffffffffffffffffffffffffffffffffffffffffffffffffffffffffff821415613483576134826134bf565b5b600182019050919050565b6000613499826133c7565b91506134a4836133c7565b9250826134b4576134b36134ee565b5b828206905092915050565b7f4e487b7100000000000000000000000000000000000000000000000000000000600052601160045260246000fd5b7f4e487b7100000000000000000000000000000000000000000000000000000000600052601260045260246000fd5b7f4e487b7100000000000000000000000000000000000000000000000000000000600052602260045260246000fd5b7f4e487b7100000000000000000000000000000000000000000000000000000000600052604160045260246000fd5b6000601f19601f8301169050919050565b6135958161335d565b81146135a057600080fd5b50565b6135ac8161336f565b81146135b757600080fd5b50565b6135c38161337b565b81146135ce57600080fd5b50565b6135da816133c7565b81146135e557600080fd5b5056fe4142434445464748494a4b4c4d4e4f505152535455565758595a6162636465666768696a6b6c6d6e6f707172737475767778797a303132333435363738392b2fa2646970667358221220b0135e68c37ed288bcf6bb14b78858a0f17a66383011ab7b3347c5cc302acfbe64736f6c634300080000333c73766720786d6c6e733d27687474703a2f2f7777772e77332e6f72672f323030302f73766727207072657365727665417370656374526174696f3d27784d696e594d696e206d656574272076696577426f783d273020302033353020333530273e3c7374796c653e2e62617365207b2066696c6c3a2077686974653b20666f6e742d66616d696c793a2073657269663b20666f6e742d73697a653a20323470783b207d3c2f7374796c653e3c726563742077696474683d273130302527206865696768743d2731303025272066696c6c3d27626c61636b27202f3e3c7465787420783d273530252720793d273530252720636c6173733d27626173652720646f6d696e616e742d626173656c696e653d276d6964646c652720746578742d616e63686f723d276d6964646c65273e",
  "linkReferences": {},
  "deployedLinkReferences": {}
}